:100F9200C7EBCAE4C8EBD0C2C3DCC2EB00C7EBD4D8
:100FA200D9B4CECAE4C8EBD0C2C3DCC2EB00C3C51D
:100FB200D2D1B4F2BFAA00BFA8BAC5A3BA00BFA8D3
:100FC200CEB4D7A2B2E100C7EBCBA2BFA800BFA8A4
:100FD200D2D1D7A2B2E100C7EBBBBBBFA8C6AC005F
:100FE200B0B4C8CED2E2BCFCBCCCD0F800D7A2B21E
:100FF200E1B3C9B9A600CEB4B4E6B4A2BFA800C991
:10100200BEC8A5B3C9B9A600C7EBCAE4C8EBC3DC26
:10101200C2EBA3BA002020C3DCC2EBB4EDCEF300D6
:101022002020C7EBD6D8D0C2B2D9D7F7A3A10020CF
:1010320020B0B4C8CED2E2BCFCBCCCD0F800202098
:101042002020C3DCC2EBB4EDCEF32020000001026D
:031052000304058F
:10174A004100330146003401020304050647003A0A
:10175A00000000000000004600233840485058604E
:10163A00E02441F582E43400F583EFF07F0A7E006E
:10164A00D3EF9400EE940040147D6E7C00ED1D7083
:0D165A00011CED4C70F7EF1F70E61E80E3E1
:011667002260
:10135200E4900052F0EF75F00AA490005AF0E49085
:101362000053F090005AE0FF12178C900053E024D3
:1013720054F582E4340012164290005AE004F090D0
:101382000053E004F0E0C3940640D8E4900053F028
:10139200900053E0FF243AF582E43400F583E0FE46
:1013A20074542FF582E43400F583E0B5060690000C
:1013B20052E004F0900053E004F0E0B406D2900052
:1013C20052E0B406057401F08005E4900052F090FA
:0413D2000052E0FFE6
:0113D60022F4
:10166800E4900051F0900051E0FFC39401501A1229
:101678001352BF010C900051E004900033F07F0139
:0B16880022900051E004F080DC7F00A5
:011693002234
:0C172800121488EFF01211B67F1E7E0034
:10173400EF1FAA0670011E4A600BE4FDEDC3947D01
:0517440050EE0D80F7DE
:01174900227D
:101488007590F0E59054F064F0603E7F017E0012A4
:101498001734E59054F064F0602F7FFEEF30E429B4
:1014A800F590E59054F064F06017E59054F0440F1F
:1014B800FEE59054F0FDBDF0F8EEF4FEEFF42EFFDB
:0B14C80022EF25E04401FF80D37F00ED
:0114D30022F6
:0811AE00121488900021EFF0FB
:1011B600EF7003021239120B4411E71111FC1212DF
:1011C600111412261811EE21120322121824122DC0
:1011D6002811F541120A42121F4412334800001228
:1011E600399000327401F0229000327402F022909D
:1011F60000327403F0229000327404F02290003220
:101206007405F0229000327406F0229000327407C2
:10121600F0229000327408F0229000327409F02215
:10122600900032740BF022E4900032F022900032EB
:04123600740CF02222
:10036500E4900052F01217A87BFF7A0F79927D0175
:100375007F011213DCE4900051F0900051E0FFC3BF
:100385009406501474532FF582E43400F583E4F099
:10039500900051E004F080E2121488900021EFF003
:1003A500900021E064486075121728900021E070E4
:1003B50006900032740AF0900032E0FFC3940040CA
:1003C50035EFD39409502F900052E0FE2453F58267
:1003D500E43400F583EFF0EEC39406500CEE248967
:1003E500FF1215FC7F0F1218AC900052E004F0E0EC
:1003F500B407037406F0900032E0642270A2900006
:1004050052E070047F89800A900052E014F0E024E5
:1004150089FF1215FC7F201218AC0203A51217A83C
:10042500E4900052F07BFF7A0F799FFD7F01121354
:10043500DCE4900051F0900051E0FFC394065014A5
:1004450074592FF582E43400F583E4F0900051E00F
:1004550004F080E2121488900021EFF0900021E072
:1004650064486075121728900021E07006900032EC
:10047500740AF0900032E0FFC394004035EFD39446
:1004850009502F900052E0FE2459F582E43400F51E
:1004950083EFF0EEC39406500CEE2489FF1215FC91
:1004A5007F0F1218AC900052E004F0E0B40703741B
:1004B50006F0900032E0642270A2900052E07004D1
:1004C5007F89800A900052E014F0E02489FF12151C
:1004D500FC7F201218AC0204611217A8900059E0A5
:1004E500FF900053E06F60030205E590005AE0FFBE
:1004F500900054E06F60030205E590005BE0FF901B
:100505000055E06F60030205E590005CE0FF900098
:1005150056E06F60030205E590005DE0FF9000572F
:10052500E06F60030205E590005EE0FF900058E093
:100535006F60030205E5900051F0900051E0FF2443
:1005450053F582E43400F583E0FE74342FF582E43C
:100555003400F583EEF0900051E004F0E0B406DAE3
:10056500E4900051F0900051E0FF2453F582E4340B
:1005750000F583E02430FE743A2FF582E43400F56B
:1005850083EEF0900051E004F0E0B406D89000331B
:10059500E01475F00AA4900060F07F057E00121645
:1005A5004AE490005FF090005FE0FEC3940650239C
:1005B500A3E0FF743A2EF582E43400F583E0FD12E2
:1005C5001825121646900060E004F090005FE004E4
:1005D500F080D37F02121112121488EF700D80F88B
:0E05E5007F03121112121488EF60FA0217A899
:10143600EF75F06484FCEF75F06484E5F075F00AEE
:1014460084FEED700CEC2430900029F0EE2430A3DD
:10145600F0EDB4010CEC243090002BF0EE2430A318
:10146600F0EDB4020CEC243090002DF0EE2430A305
:10147600F0EDB4030CEC243090002FF0EE2430A3F2
:01148600F075
:011487002242
:1014D4007B017A0079077F2612123AEF60037F00BE
:1014E400227B017A007907121055EF60037F0022F6
:1014F400E4FB74072BF582E43400F583E0FFAD03CD
:0A1504001214360BEBB404EA7F0169
:01150E0022BA
:100ECA001214D4E4900006F0900006E0FFC39406E2
:100EDA004003020F7C74232FF582E43400F583E08B
:100EEA0090005CF0E490005BF090005CE0FF121769
:100EFA008C90005B12163A90005CE004F090005B64
:100F0A00E004F0E0C3940840E0900041E0FF900064
:100F1A0029E06F7054900042E0FF90002AE06F7061
:100F2A0048900043E0FF90002BE06F703C90004433
:100F3A00E0FF90002CE06F7030900045E0FF9000D9
:100F4A002DE0B50724900046E0FF90002EE0B5079B
:100F5A0018900047E0FF90002FE0B5070C9000487A
:100F6A00E0FF900030E06F6009900006E004F002B4
:100F7A000ED2900006E0C394065007900031740127
:070F8A00F022E4900031F0B9
:010F9100223D
:100CDA001214D4EF64016003020DDD120ECA9000F3
:100CEA0031E064017074F01217A87BFF7A0F79B0B3
:100CFA007D027F011213DC7BFF7A0F79B9E4FD7F55
:100D0A00021213DC7F8B1215FC900029E0FF1218E7
:100D1A00AC90002AE0FF1218AC90002BE0FF1218EA
:100D2A00AC90002CE0FF1218AC90002DE0FF1218D6
:100D3A00AC90002EE0FF1218AC90002FE0FF1218C2
:100D4A00AC900030E0FF1218ACC2B67FC47E091224
:100D5A001734D2B67FE87E0380711217A87BFF7A18
:100D6A000F79C07D027F011213DC7BFF7A0F79B9FC
:100D7A00E4FD7F021213DC7F8B1215FC900029E040
:100D8A00FF1218AC90002AE0FF1218AC90002BE07A
:100D9A00FF1218AC90002CE0FF1218AC90002DE066
:100DAA00FF1218AC90002EE0FF1218AC90002FE052
:100DBA00FF1218AC900030E0FF1218ACC2B27F2CC0
:100DCA007E01121734D2B27FB87E0B1217347F011C
:040DDA0012111222BE
:1000030078517C007D017BFF7A10794F7E007F065B
:10001300120A85E4900057F01217A87BFF7A0F7934
:10002300C97D02E4FF1213DC1214881211B690008A
:1000330021E0641870030203647F891215FC7F4971
:100043001218AC7F441218AC900057E02451F5828B
:10005300E43400F583E02430FF1218AC7F3A121821
:10006300AC1214D41211AE900057E02423F582E4AD
:100073003400F583E090005AF0E4900058F09000CB
:100083005AE0FF12178C90005812163A90005AE06B
:1000930004F0900058E004F0E0C3940840E09000BE
:1000A30057E02423F582E43400F583E090005AF00E
:1000B300900041E06430600302016BA3E0643060B0
:1000C3000302016BA3E06430600302016BA3E064ED
:1000D30030600302016BA3E06430600302016BA391
:1000E300E06430600302016BA3E06430707AA3E044
:1000F300643070741214D4EF64017F8B7040121556
:10010300FC900029E0FF1218AC90002AE0FF1218BF
:10011300AC90002BE0FF1218AC90002CE0FF1218FB
:10012300AC90002DE0FF1218AC90002EE0FF1218E7
:10013300AC90002FE0FF1218AC900030806A1215CB
:10014300FC7F201218AC7F201218AC7F201218AC51
:100153007F201218AC7F201218AC7F201218AC7FBE
:10016300201218AC7F2080427F8B1215FC90004137
:10017300E0FF1218AC900042E0FF1218AC9000436D
:10018300E0FF1218AC900044E0FF1218AC90004559
:10019300E0FF1218AC900046E0FF1218AC90004745
:1001A300E0FF1218AC900048E0FF1218AC90002159
:1001B300E06482600302026C1214D41214D4EF645C
:1001C30001600302026C120ECA900031E0640170F8
:1001D30033F01217A87BFF7A0F79D07D02E4FF1268
:1001E30013DC7BFF7A0F79D97D027F011213DC7B4D
:1001F300FF7A0F79E27D017F021213DC121488EF7C
:1002030060FA8055E4900059F0900059E0FEC394E1
:10021300085023A3E0FF74292EF582E43400F5830C
:10022300E0FD12182512164690005AE004F09000E3
:1002330059E004F080D31217A87BFF7A0F79EF7D82
:1002430002E4FF1213DC7BFF7A0F79E27D017F0169
:100253001213DC121488EF60FA1217A87BFF7A0FCF
:1002630079C97D02E4FF1213DC900021E06484600D
:1002730003020348900041E06430704FA3E0643010
:100283007049A3E064307043A3E06430703DA3E0A1
:1002930064307037A3E064307031A3E06430702BB6
:1002A300A3E0643070251217A87BFF7A0F79F87DDD
:1002B300027F011213DC7BFF7A0F79E27D017F025B
:1002C3001213DC121488EF60FA806AE4900059F08C
:1002D300900059E0FE2441F582E43400F583E4F014
:1002E30090005AE0FF74412EF582E43400F583E078
:1002F3002430FD12182512164690005AE004F0909F
:100303000059E004F0E0C3940840C57F327E001238
:10031300164A1217A87BFF7A1079017D02E4FF12B7
:1003230013DC7BFF7A0F79E27D017F011213DC126C
:100333001488EF60FA1217A87BFF7A0F79C97D0240
:10034300E4FF1213DC900021E0B48106900057E033
:1003530004F0900057E064066003020031F00200ED
:010363003168
:010364002276
:1007EE00E490004EF0A304F01217A87BFF7A107964
:1007FE000A7D017F011213DCE490004DF090004D54
:10080E00E0FFC394065014741B2FF582E43400F5F8
:10081E0083E4F090004DE004F080E2121488900022
:10082E0021EFF0900021E0644860751217289000C7
:10083E0021E07006900032740AF0900032E0FFC39F
:10084E0094004035EFD39409502F90004EE0FE24D3
:10085E001BF582E43400F583EFF0EEC39406500CE2
:10086E00EE2489FF1215FC7F0F1218AC90004EE09B
:10087E0004F0E0B407037406F0900032E0640B70ED
:10088E00A290004EE070047F89800A90004EE01422
:10089E00F0E02489FF1215FC7F201218AC020831FB
:1008AE001217A8E490004DF090004DE0FF241BF5C8
:1008BE0082E43400F583E02430FE743A2FF582E4AE
:1008CE003400F583EEF090004DE004F0E0B406D86D
:1008DE0090004EE0B40608121668900050EFF090AB
:1008EE000050E064017078F0900021E0641870030D
:1008FE000209A57F041211121211AE900032E024EB
:10090E00FE605714604A146036240370DB1217A879
:10091E007BFF7A0F79B07D027F011213DCC2B67FA6
:10092E00C47E09121734D2B67FE87E03121734E460
:10093E00900021F0900032F07F0412111280A9E491
:10094E00900050F0900032F09000217418F08098D2
:10095E00120003E4900021F0808E1203658089C29C
:10096E00B27F2C7E01121734D2B27BFF7A10791728
:10097E00E4FD7F011213DC7BFF7A107922E4FD7F08
:10098E00021213DC7BFF7A107931E4FD7F03121320
:10099E00DC121488EF60FAE4900021F07F0112114E
:0609AE0012E490004EF07F
:0109B4002220
:10183A00759850E4F587758921758DFD758BFDD2F4
:04184A008ED2AF2269
:100B6A00E4900049F0A3F0A304F01218BB12183A5B
:100B7A001218D67F0A7E001217341217DF7F01126D
:100B8A001112121488900021EFF0900021E06448BD
:100B9A007003020C2A120CDA121488900021121720
:100BAA002B900021E0B488031207EE900021E07038
:100BBA0006900032740AF0900032E0FFC3940040BD
:100BCA0038EFD39409503290004AE0FE241BF58294
:100BDA00E43400F583EFF0EEC39406500CEE24994A
:100BEA00FF1215FC7F0F1218AC90004AE004F0E0E7
:100BFA00640770967406F08091900032E0640B707E
:100C0A008990004AE070047F99800A90004AE014B3
:100C1A00F0E02499FF1215FC7F201218AC020B9405
:100C2A00E4900049F0900049E0FF241BF582E43487
:100C3A0000F583E02430FE743A2FF582E43400F59F
:100C4A0083EEF0900049E004F0E0B406D890004A40
:100C5A00E0B4060812166890004CEFF090004CE0E1
:100C6A0064017030F01217A87BFF7A0F79B07D0209
:100C7A007F011213DCC2B67FC47E09121734D2B6C2
:100C8A007FE87E031217347F01121112E490004AA2
:100C9A00F0020B8C1217A87BFF7A107940E4FD7FD3
:100CAA00011213DC7BFF7A107922E4FD7F02121312
:100CBA00DCC2B27F2C7E01121734D2B27FD07E07FB
:100CCA001217347F01121112E490004AF0020B8CC1
:10184E00E4FDFCC3ED9FEC9E500900000DBD0001B0
:03185E000C80F00B
:011861002264
:1017F800E4FFFEEF25E0FFC2A130A3034401FFD2BE
:06180800A10EEEB408ED94
:01180E0022B7
:02169400AB07A2
:10169600E4FAEB30E704D2A28002C2A27F017E0008
:1016A60012184EC2A112184ED2A112184EEB25E006
:0616B600FB0AEAB408DCA7
:0116BC00220B
:0617C400EDF0A907E4FEB0
:1017CA00E4FEC2A0EF25E0547E4480FF1216941274
:0417DA0017F8D2A08A
:0117DE0022E8
:1015AA001215C67D1E7F2D1215C6E4FD7F2C12155D
:0C15BA00C67D8D7F2A1215C67D3E7F2B5A
:0215C600A90575
:1015C800C2A0EF25E0547EFF121694AF01121694C4
:0215D800D2A09F
:0115DA0022EE
:05180F00F07D087F08D8
:03181400900087BA
:0E1817001217C4AE07AF01E0F45EFD0215C665
:03189C0090008732
:0D189F001217C4AE07AF01E04EFD0215C6E2
:1005F300900077EBF0A3EAF0A3E9F0900076EFF038
:1006030090008174FEF0E4A3F0A3F0EF24F46010F3
:1006130024FE70169000827412F0A37410F0800A06
:100623009000827477F0A37430F0900082E04480ED
:10063300FD7F021215C67D807F04121814E4FD7F2E
:10064300011215C67D807F0A12189CE4900085F084
:10065300A3F090007AE0FF900085E0FCA3E0FDC3E7
:100663009FEC94005028900077E0FBA3E0FAA3E00E
:10067300F98D828C83120AC4FD7F091215C690007E
:1006830086E004F070CC900085E004F080C4900014
:1006930076E0FD7F011215C6E0B40C077D807F0D67
:1006A30012189C9000857407F0A374D0F07F041295
:1006B30017CA900084EFF0900086E024FFF09000CA
:1006C30085E034FFF0E07002A3E06011900084E065
:1006D300FF20E009900083E0FEEF5E60D07D807F25
:1006E3000D121814900085E07002A3E07003020756
:1006F300DA7F061217CAEF541B60030207D4900077
:1007030081F0A3E0FF900084E05F30E00690008179
:1007130074FFF0900076E0640C60030207DA7F0A4E
:100723001217CA900084EFF07F0C1217CAEF540718
:10073300FD6026E024FFFFE434FFFEEF7803C333BC
:10074300CE33CED8F97C002DFFEC3EF990007EE04D
:10075300FBA3E0FAA3E0C98016900084E075F008DB
:10076300A4FF90007EE0FBA3E0FAA3E0F9E5F08F9D
:10077300F0120B25900084E0700204F0900084E0F6
:10078300D3941240037412F0E4900085F0A3F09028
:100793000084E0FFC3900086E09F900085E0940012
:1007A30050357F091217CA90007BE0FBA3E0FAA340
:1007B300E0F9900085E0FCA3E0F5828C83EF120B57
:1007C30003900086E004F070C6900085E004F0809A
:1007D300BE90008174FEF07D807F0C12189CE4FDB6
:0A07E3007F011215C6900081E0FFAF
:0107ED0022E9
:0D123A0090005DEFF0A3EBF0A3EAF0A3E954
:1012470012180F7D077F0D1215C67D037F14121824
:101257009C90005DE0900063F090007A7401F0A329
:10126700F0A37400F0A37463F0A37401F0A37400F7
:10127700F0A37461F07B017A0079637F0C1205F3A8
:10128700EF7039900061E07004A3E06410702D9056
:101297000063E0FE90005EE0FBA3E0FAA3E0F9EE56
:1012A700120AF1900064E0FE90005EE0FBA3E0FA12
:0E12B700A3E0F9900001EE120B0380027FFE0F
:0112C5002206
:0B10550090005DEBF0A3EAF0A3E9F0CF
:10106000E490006112180FE4FD7F0D1215C67D801B
:101070007F0E1218149000647493F0A37420F09003
:10108000007A7402F07B01A314F0A37400F0A3743F
:1010900064F0A3EBF0A37400F0A37462F07A00791B
:1010A000647F0C1205F3900060EFF07058FC7464DC
:1010B0002CF582E43400F583E0FE90005DE0FBA3B4
:1010C000E0FAA3E0F9AF048F82758300EE120B0300
:1010D000900061E0FE74642FF582E43400F583E053
:1010E000FDEE6D900061F00CECB404C274642CF55C
:1010F00082E43400F583E0FF900061E06F600690C9
:10110000006074FEF07D807F0E12189C900060E0FD
:01111000FFDF
:0111110022BB
:10157800D2A47F0A7E0012184EC2A412184ED2A41A
:1015880012184E7D0F7F011215C67F0A7E001218B1
:101598004E7D3D7F111215AA7D407F151215C67F1D
:0215A80000221F
:10160B00EF644170241218107D3D7F111215C67DB9
:10161B00867F171215C67D7F7F261215AA7FE87E5F
:0F162B000312184E12188A80037FFF227F0022BD
:10188A007F141217CAEF540370077D037F141218CE
:01189A009CB1
:01189B00222A
:0718E2007D037F14021814BE
:0E18BB001215781218E212188A7F4102160BDD
:0518E9000000000022D8
:0C18D600C2B3D2B41218E9D2B50218E96E
:10186200D2B41218E9D2B51218E9C2B51218E9C2F7
:04187200B40218E9BB
:10187600C2B41218E9C2B51218E9D2B41218E9D2E4
:04188600B50218E9A6
:10176B00E4FEC2B41218E9EF3392B51218E9D2B401
:10177B001218E9EF25E0FF0EEEB408E6C2B402182A
:01178B00E974
:1016E200E4FEFDC2B41218E930B5047F018002E4C1
:1016F200FFEE25E04FFED2B41218E90DEDB408E377
:02170200AF0630
:0117040022C2
:0B17050012176B121710AF0512176BC4
:10171000E4FFD2B41218E930B509EFC394FF5003C7
:081720000F80F4C2B40218E9C5
:02178C00AD07A7
:10178E001218627FA01217051218627FA112176B32
:09179E001217101216E21218765F
:0117A700221F
:10182500AC071218627FA012176B121710AF0412C3
:05183500170502187602
:100DDE0020202020BBB6D3ADCAB9D3C320202020FB
:100DEE00002020D6C7C4DCC3C5BDFBCFB5CDB32014
:100DFE002000C7EBCAE4C8EBC3DCC2EBBBF2CBA24C
:100E0E00BFA8002020C3DCC2EBD0DEB8C4B3C9B982
:100E1E00A62020002020B0B4C8CED2E2BCFCBCCCB0
:100E2E00D0F82020002020C3DCC2EBD0DEB8C4CA2C
:100E3E00A7B0DC202000C1BDB4CECAE4C8EBB5C457
:100E4E00C3DCC2EBB2BB00D2BBD6C2A3ACC7EBD6DF
:100E5E00D8D0C2B2D9D7F700B0B4BCFC31203A20FA
:100E6E00B4F2BFAAC3C5BDFB00B0B4BCFC32203A7D
:100E7E0020D0DEB8C4C3DCC2EB00B0B4BCFC33205F
:100E8E003A20BFA8C6ACB9DCC0ED00B0B4BCFC348F
:100E9E00203A20CDCBB3F6CFB5CDB300808182837F
:100EAE0084858687909192939495969788898A8B5C
:0C0EBE008C8D8E8F98999A9B9C9D9E9F16
:1016BD001216CEEC54F0FF1216CEAF04EFC454F058
:0116CD00FF1D
:1016CE00E4FEC2A7EF25E0FF92A6D2A7C2A70EEEB8
:0316DE00B408EF5E
:0116E10022E6
:10150F00E4FFFEFDEE25E0FEC2A7D2A7C2A730A6DC
:10151F00010E0DEDB408EDE4FDEF25E0FFC2A7D2FB
:10152F00A7C2A730A6010F0DEDB408EDEF540FFFC2
:05153F00EE54F02FFF47
:011544002284
:0D18C9007FFC1216CE12150FEF20E7F4225F
:1015DB00E0FF900061E075F008A42FF582E435F090
:1015EB00F583E58224AAF582E583340EF583E49333
:0115FB00FFF0
:0F15FC00AC07D2A51218C97FF81216BDC2A522DE
:0F18AC00AC07D2A51218C97FFA1216BDC2A52229
:1017DF007F301215FC7F031215FC7F0C1215FC7F56
:0917EF00011215FC7F060215FC35
:10154500AB07AA05EB14600C14600D14600E2403A0
:101555007B80800A7B9080067B8880027B98EA549A
:1015650007FA7F301215FCEA2BFF1215FCEA2BFF58
:031575000215FC60
:1017A8007F301215FC7F801215FCE4FB7F20121895
:0C17B800AC0BEBB440F6E4FDFF0215455D
:0513D7007BFFE4FDFFB7
:1013DC00900061EFF0A3EDF07F301215FC1215DBDD
:1013EC00120AAB6044900062E0B40808E4F090008C
:1013FC0061E004F0900061E0B40402E4F09000625B
:10140C001215DB120AABFF1218AC740129F9E43A7D
:10141C00FA120AABFF60C91218AC740129F9E43A4C
:0A142C00FA900062E004F080B7229D
:10111200EF24FE602C14603A14606324036003021F
:1011220011AD1217A87A0D79DE1213D77A0D79EF65
:10113200E4FD7F011213DC7A0E7900E4FD7F028068
:10114200677A0E79111213D77A0E7922E4FD7F03A2
:1011520080567BFF7A0E7933E4FDFF1213DC7A0EA0
:101162007944E4FD7F011213DC7A0E7955E4FD7FA8
:10117200021213DC7A0E7922E4FD7F03802A7BFFC0
:101182007A0E7966E4FDFF1213DC7A0E7977E4FDBC
:101192007F011213DC7A0E7988E4FD7F021213DCE0
:0C11A2007A0E7999E4FD7F031213DC2221
:030000000212C623
:0C12C600787FE4F6D8FD75810702130D57
:1009B500E709F608DFFA8046E709F208DFFA803E24
:1009C50088828C83E709F0A3DFFA8032E309F60811
:1009D500DFFA8078E309F208DFFA807088828C8379
:1009E500E309F0A3DFFA806489828A83E0A3F6082D
:1009F500DFFA805889828A83E0A3F208DFFA804C07
:100A050080D280FA80C680D4806980F280338010DD
:100A150080A680EA809A80A880DA80E280CA803346
:100A250089828A83ECFAE493A3C8C582C8CCC583BE
:100A3500CCF0A3C8C582C8CCC583CCDFE9DEE7808E
:100A45000D89828A83E493A3F608DFF9ECFAA9F00D
:100A5500EDFB2289828A83ECFAE0A3C8C582C8CC63
:100A6500C583CCF0A3C8C582C8CCC583CCDFEADE7C
:100A7500E880DB89828A83E493A3F208DFF980CCDE
:100A850088F0EF60010E4E60C388F0ED2402B404D7
:100A95000050B9F582EB2402B4040050AF2323457E
:060AA5008223900A057394
:100AAB00BB010689828A83E0225002E722BBFE0249
:090ABB00E32289828A83E493227C
:100AC400BB010CE58229F582E5833AF583E02250E7
:100AD40006E92582F8E622BBFE06E92582F8E22231
:0D0AE400E58229F582E5833AF583E493224B
:100AF100BB010689828A83F0225002F722BBFE01E4
:020B0100F322DD
:100B0300F8BB010DE58229F582E5833AF583E8F028
:100B1300225006E92582C8F622BBFE05E92582C8D4
:020B2300F222BC
:100B2500BB010A89828A83F0E5F0A3F0225006F71B
:0F0B350009A7F01922BBFE06F3E5F009F3192218
:100B4400D083D082F8E4937012740193700DA3A340
:100B540093F8740193F5828883E473740293686054
:060B6400EFA3A3A380DF54
:1012D200020B6AE493A3F8E493A34003F68001F2BD
:1012E20008DFF48029E493A3F85407240CC8C3331D
:1012F200C4540F4420C8834004F456800146F6DFEC
:10130200E4800B010204081020408090174AE47E1A
:10131200019360BCA3FF543F30E509541FFEE493E0
:10132200A360010ECF54C025E060A840B8E493A3A7
:10133200FAE493A3F8E493A3C8C582C8CAC583CAD2
:10134200F0A3C8C582C8CAC583CADFE9DEE780BE8A
:01176A00007E
:00000001FF
